02562112150ER0708855T0066RDSOVD  RVDNI /     5909003   0ERP UO                  UO             0                                                  0001
10666800010011789107080781087100086 0011000000    2103210000000800000000000000000080000000007810000230000010000001D20000011          200000       0002
1066100117891          RNIA      00000002300000000000000000                                                                                       0003
106668100117891300          I77800008030000000000000000000000                         00000                          2                            0004
2066100117891FLCORDIUSDSSNO                          0000000018175URS                           000000                                            0005
20661001178910000000108175                                                                                                                        0006
30661001178919557RDSO                               004383000               000000000000000000000002                                              0007
30661001178918000RDSO                               004383000               000000000000000000000000                                              0008
30661001178916200000000000000000000000                                                                                                            0009
4066100117891000FLCORDIUSDSSNO           16001000000M000                         00003001          2    21000                    000000000000000000000
406610011789100002800000000000000900000001100S21002103                                                                                            0001
406610011789100002900000000000000000000001100N21002103                                                                                            0002
406610011789100002000000000000000900000001100N21002103                                                                                            0003
406610011789100002100000000000000900000001100N21002103                                                                                            0004
406610011789100002600000000000000000000001100N21002103                                                                                            0005
4066100117891000CJA  VL 31S 0                                 NOIFRAO        UELNI          M3480                                                 0006
4066100117891000183380                    N                                                                                                       0007
4066100117891000N               00000000               000000                                             00000                                   0008
40661001178910000108175000000000000000000000                                                                                                      0009
9066100117891UO ERP                 2112150009300                 0708855                                                UO                       0000
10666800010011780107080781087100086 0011000000    2103210000000000000000000000000000000000007810000390000010000001D20000011          200000       0001
1066100117801          RNIA      00000002300000000000000000                                                                                       0002
106668100117801300          I77800009030000000000000000000000                         00000                          2                            0003
2066100117801FLCORDIUSDSSNO                          0000000018175URS                           000000                                            0004
20661001178010000000108175                                                                                                                        0005
30661001178019557RDSO                               004383000               000000000000000000000002                                              0006
30661001178018000RDSO                               004383000               000000000000000000000000                                              0007
30661001178016200000000000000000000000                                                                                                            0008
4066100117801000FLCORDIUSDSSNO           16001000000M000                         00003001          2    21000                    000000000000000000009
406610011780100002800000000000000000000001100S21002103                                                                                            0000
406610011780100002900000000000000000000001100N21002103                                                                                            0001
406610011780100002000000000000000000000001100N21002103                                                                                            0002
406610011780100002100000000000000000000001100N21002103                                                                                            0003
406610011780100002600000000000000000000001100N21002103                                                                                            0004
4066100117801000CJA  VL 31S 0                                 NOIFRAO        UELNI          M3480                                                 0005
4066100117801000183380                    N                                                                                                       0006
4066100117801000N               00000000               000000                                             00000                                   0007
40661001178010000108175000000000000000000000                                                                                                      0008
9066100117801UO ERP                 2112150009300                 0708855                                                UO                       0009
10666800010011781107080781087100086 0011000000    2103210000000700000000000000000070000000007810000380000010000001D20000011          200000       0000
1066100117811          RNIA      00000002300000000000000000                                                                                       0001
106668100117811300          I77800090030000000000000000000000                         00000                          2                            0002
2066100117811FLCORDIUSDSSNO                          0000000018175URS                           000000                                            0003
20661001178110000000108175                                                                                                                        0004
30661001178119557RDSO                               004383000               000000000000000000000002                                              0005
30661001178118000RDSO                               004383000               000000000000000000000000                                              0006
30661001178116200000000000000000000000                                                                                                            0007
4066100117811000FLCORDIUSDSSNO           16001000000M000                         00003001          2    21000                    000000000000000000008
406610011781100002800000000000000200000001100S21002103                                                                                            0009
406610011781100002900000000000000000000001100N21002103                                                                                            0000
406610011781100002000000000000000200000001100N21002103                                                                                            0001
406610011781100002100000000000000200000001100N21002103                                                                                            0002
406610011781100002600000000000000000000001100N21002103                                                                                            0003
4066100117811000CJA  VL 31S 0                                 NOIFRAO        UELNI          M3480                                                 0004
4066100117811000183380                    N                                                                                                       0005
4066100117811000N               00000000               000000                                             00000                                   0006
40661001178110000108175000000000000000000000                                                                                                      0007
9066100117811UO ERP                 2112150009300                 0708855                                                UO                       0008
10666800010011782107080781087100086 0111000000    2103210000000600000000000000000060000000007810000470000010000001D20000011          200000       0009
1066100117821          RNIA      00000002500000000000000000                                                                                       0000
106668100117821300          I77200098000000000000000000000000                         00000                          2                            0001
2066100117821FLCORDIUSDSSNO                          0000000011628URS                           000000                                            0002
20661001178210000000101628                                                                                                                        0003
30661001178219557RDSO                               004383000               000000000000000000000002                                              0004
30661001178218000RDSO                               004383000               000000000000000000000000                                              0005
30661001178216200000000000000000000000                                                                                                            0006
4066100117821000FLCORDIUSDSSNO           16001000000M000                         00003001          2    21000                    000000000000000000007
406610011782100002800000000000000500000001100S21002103                                                                                            0008
406610011782100002900000000000000000000001100N21002103                                                                                            0009
406610011782100002000000000000000500000001100N21002103                                                                                            0000
406610011782100002100000000000000500000001100N21002103                                                                                            0001
406610011782100002600000000000000000000001100N21002103                                                                                            0002
4066100117821000CRAEUROAGSOMSUT5                              PRU AT EEA     CRPCIA         S0308                                                 0003
4066100117821000183380                    N                                                                                                       0004
4066100117821000N               00000000               000000                                             00000                                   0005
40661001178210000101628000000000000000000000                                                                                                      0006
9066100117821UO ERP                 2112150009300                 0708855                                                UO                       0007
10666800010011783107080781087100086 0111000000    2103210000000600000000000000000070000000007810000400000010000001D20000011          200000       0008
1066100117831          RNIA      00000004000000000000000000                                                                                       0009
106668100117831300          I71800028090000000000000000000000                         00000                          2                            0000
2066100117831FLCORDIUSDSSNO                          0000000018175URS                           000000                                            0001
20661001178310000000108175                                                                                                                        0002
30661001178319557RDSO                               004383000               000000000000000000000002                                              0003
30661001178318000RDSO                               004383000               000000000000000000000000                                              0004
30661001178316200000000000000000000000                                                                                                            0005
4066100117831000FLCORDIUSDSSNO           16001000000M000                         00003001          2    21000                    000000000000000000006
406610011783100002800010000000000000000001100S21002103                                                                                            0007
406610011783100002900000000000000000000001126N21002103                                                                                            0008
406610011783100002000000000000000800000001126N21002103                                                                                            0009
406610011783100002100000000000000800000001126N21002103                                                                                            0000
406610011783100002600000000000000000000001100N21002103                                                                                            0001
4066100117831000CEUROAGSOMSUT5                                PRU AT EEA     CRPCIA         S0308                                                 0002
4066100117831000183380                    N                                                                                                       0003
4066100117831000N               00000000               000000                                             00000                                   0004
40661001178310000108175000000000000000000000                                                                                                      0005
9066100117831UO ERP                 2112150009300                 0708855                                                UO                       0006
10666800010011784107080781087100086 0111000000    2103210000000600000000000000000070000000007810000400000010000001D20000011          200000       0007
1066100117841          RNIA      00000004000000000000000000                                                                                       0008
106668100117841300          I71800057000000000000000000000000                         00000                          2                            0009
2066100117841FLCORDIUSDSSNO                          0000000018175URS                           000000                                            0010
20661001178410000000108175                                                                                                                        0011
30661001178419557RDSO                               004383000               000000000000000000000002                                              0012
30661001178418000RDSO                               004383000               000000000000000000000000                                              0013
30661001178416200000000000000000000000                                                                                                            0014
4066100117841000FLCORDIUSDSSNO           16001000000M000                         00003001          2    21000                    000000000000000000015
406610011784100002800010000000000000000001100S21002103                                                                                            0016
406610011784100002900000000000000000000001126N21002103                                                                                            0017
406610011784100002000000000000000800000001126N21002103                                                                                            0018
406610011784100002100000000000000800000001126N21002103                                                                                            0019
406610011784100002600000000000000000000001100N21002103                                                                                            0010
4066100117841000CEUROAGSOMSUT0                                PRU AT EEA     CRPCIA         S0308                                                 0011
4066100117841000183380                    N                                                                                                       0012
4066100117841000N               00000000               000000                                             00000                                   0013
40661001178410000108175000000000000000000000                                                                                                      0014
9066100117841UO ERP                 2112150009300                 0708855                                                UO                       0015
10666800010011785107080781087100086 0111000000    2103210000000600000000000000000070000000007810000400000010000001D20000011          200000       0016
1066100117851          RNIA      00000004000000000000000000                                                                                       0017
106668100117851300          I71800046000000000000000000000000                         00000                          2                            0018
2066100117851FLCORDIUSDSSNO                          0000000000000URS                           000000                                            0019
20661001178510000000000000                                                                                                                        0010
30661001178519557RDSO                               004383000               000000000000000000000002                                              0011
30661001178518000RDSO                               004383000               000000000000000000000000                                              0012
30661001178516200000000000000000000000                                                                                                            0013
4066100117851000FLCORDIUSDSSNO           16001000000M000                         00003001          2    21000                    000000000000000000014
406610011785100002800010000000000000000001100S21002103                                                                                            0015
406610011785100002900000000000000000000001126N21002103                                                                                            0016
406610011785100002000000000000000800000001126N21002103                                                                                            0017
406610011785100002100000000000000800000001126N21002103                                                                                            0018
406610011785100002600000000000000000000001100N21002103                                                                                            0019
4066100117851000CEUROAGSOMSUT5                                PRU AT EEA     CRPCIA         S0308                                                 0010
4066100117851000183380                    N                                                                                                       0011
4066100117851000N               00000000               000000                                             00000                                   0012
40661001178510000000000000000000000000000000                                                                                                      0013
9066100117851UO ERP                 2112150009300                 0708855                                                UO                       0014
10666800010011786107080781087100086 0011000000    2103210000000800000000000000000080000000007810000230000010000001D20000011          200000       0015
1066100117861          RNIA      00000002300000000000000000                                                                                       0016
106668100117861300          I79600013000000000000000000000000                         00000                          2                            0017
2066100117861FLCORDIUSDSSNO                          0000000018175URS                           000000                                            0018
20661001178610000000108175                                                                                                                        0019
30661001178619557RDSO                               004383000               000000000000000000000002                                              0010
30661001178618000RDSO                               004383000               000000000000000000000000                                              0011
30661001178616200000000000000000000000                                                                                                            0012
4066100117861000FLCORDIUSDSSNO           16001000000M000                         00003001          2    21000                    000000000000000000013
406610011786100002800000000000000900000001100S21002103                                                                                            0014
406610011786100002900000000000000000000001100N21002103                                                                                            0015
406610011786100002000000000000000900000001100N21002103                                                                                            0016
406610011786100002100000000000000900000001100N21002103                                                                                            0017
406610011786100002600000000000000000000001100N21002103                                                                                            0018
4066100117861000CEUROAGSOMSUT5                                PRU AT EEA     CRPCIA         S0308                                                 0019
4066100117861000183380                    N                                                                                                       0010
4066100117861000N               00000000               000000                                             00000                                   0011
40661001178610000108175000000000000000000000                                                                                                      0012
9066100117861UO ERP                 2112150009300                 0708855                                                UO                       0013
10666800010011787107080781087100086 0011000000    2103210000000700000000000000000080000000007810000710000010000001D20000011          200000       0014
1066100117871          RNIA      00000002300000000000000000                                                                                       0015
106668100117871300          I79900099031000000000000000000000                         00000                          2                            0016
2066100117871FLCORDIUSDSSNO                          0000000013311URS                           000000                                            0017
20661001178710000000103311                                                                                                                        0018
30661001178719557RDSO                               004383000               000000000000000000000002                                              0019
30661001178718000RDSO                               004383000               000000000000000000000000                                              0010
30661001178716200000000000000000000000                                                                                                            0011
4066100117871000FLCORDIUSDSSNO           16001000000M000                         00003001          2    21000                    000000000000000000012
406610011787100002800000000000000600000001100S21002103                                                                                            0013
406610011787100002900000000000000000000001100N21002103                                                                                            0014
406610011787100002000000000000000600000001100N21002103                                                                                            0015
406610011787100002100000000000000500000001100N21002103                                                                                            0016
406610011787100002600000000000000000000001100N21002103                                                                                            0017
4066100117871000CRAEUROAGSOMSUT5                              PRU AT EEA     CRPCIA         S0000                                                 0018
4066100117871000183380                    N                                                                                                       0019
4066100117871000N               00000000               000000                                             00000                                   0010
40661001178710000103311000000000000000000000                                                                                                      0011
9066100117871UO ERP                 2112150009300                 0708855                                                UO                       0012
10666800010011788107080781087100086 0111000000    2103210000007000000200000000000730000000007810000230000010000001D20000011          200000       0013
1066100117881          RNIA      00000008300000000000000000                                                                                       0014
106668100117881300          I77900099000000000000000000000000                         00000                          2                            0015
2066100117881EIOECROOLPS                             0000000011650URS                           000000                                            0016
20661001178810000000101650                                                                                                                        0017
30661001178819557RDSO                               004383000               000000000000000000000002                                              0018
30661001178818000RDSO                               004383000               000000000000000000000000                                              0019
30661001178816200000000000000000000000                                                                                                            0010
4066100117881000EIOECROOLPS              16021000000F000                         00003001          8    21000                    000000000000000000011
406610011788100002100004000000000900000001100N21002103                                                                                            0012
406610011788100002800010000000002200000001100S21002103                                                                                            0013
406610011788100002900010000000000000000001100N21002103                                                                                            0014
406610011788100002000010000000002200000001100N21002103                                                                                            0015
406610011788100002100010000000002200000001100N21002103                                                                                            0016
406610011788100004100004000000000300000001100N21002103                                                                                            0017
406610011788100002600000000000000000000001100N21002103                                                                                            0018
4066100117881000CRAFACSOD IA3                                 J ENRMNE EBRO  SOPUO          S0361                                                 0019
4066100117881000126527                    N                                                                                                       0010
4066100117881000N               00000000               000000                                             00000                                   0011
40661001178810000101650000000000000000000000                                                                                                      0012
9066100117881UO ERP                 2112150001300                 0708855                                                UO                       0013
10666800010011789107080781087100086 0011000000    2103210000000700000000000000000070000000007810000380000010000001D20000011          200000       0014
1066100117891          RNIA      00000002300000000000000000                                                                                       0015
106668100117891300          I77800000030000000000000000000000                         00000                          2                            0016
2066100117891CADJN ACNECOSLA                         0000000018186URS                           000000                                            0017
20661001178910000000108186                                                                                                                        0018
30661001178919557RDSO                               004383000               000000000000000000000002                                              0019
30661001178918000RDSO                               004383000               000000000000000000000000                                              0020
30661001178916200000000000000000000000                                                                                                            0021
4066100117891000CADJN ACNECOSLA          17111000000F000                         00003011          1    21000                    000000000000000000022
406610011789100002800000000000000200000001100S21002103                                                                                            0023
406610011789100002900000000000000000000001100N21002103                                                                                            0024
406610011789100002000000000000000200000001100N21002103                                                                                            0025
406610011789100002100000000000000200000001100N21002103                                                                                            0026
406610011789100002600000000000000000000001100N21002103                                                                                            0027
4066100117891000CJA  VL 31S 0                                 NOIFRAO        UELNI          M3480                                                 0028
4066100117891000155171                    N                                                                                                       0029
4066100117891000N               00000000               000000                                             00000                                   0020
40661001178910000108186000000000000000000000                                                                                                      0021
9066100117891UO ERP                 2112150009301                 0708855                                                UO                       0022
10666800010011780107080781087100086 0011000000    2103210000000800000000000000000080000000007810000230000010000001D20000011          200000       0023
1066100117801          RNIA      00000002300000000000000000                                                                                       0024
106668100117801300          I77800006030000000000000000000000                         00000                          2                            0025
2066100117801CADJN ACNECOSLA                         0000000018186URS                           000000                                            0026
20661001178010000000108186                                                                                                                        0027
30661001178019557RDSO                               004383000               000000000000000000000002                                              0028
30661001178018000RDSO                               004383000               000000000000000000000000                                              0029
30661001178016200000000000000000000000                                                                                                            0020
4066100117801000CADJN ACNECOSLA          17111000000F000                         00003011          1    21000                    000000000000000000021
406610011780100002800000000000000900000001100S21002103                                                                                            0022
406610011780100002900000000000000000000001100N21002103                                                                                            0023
406610011780100002000000000000000900000001100N21002103                                                                                            0024
406610011780100002100000000000000900000001100N21002103                                                                                            0025
406610011780100002600000000000000000000001100N21002103                                                                                            0026
4066100117801000CJA  VL 31S 0                                 NOIFRAO        UELNI          M3480                                                 0027
4066100117801000155171                    N                                                                                                       0028
4066100117801000N               00000000               000000                                             00000                                   0029
40661001178010000108186000000000000000000000                                                                                                      0020
9066100117801UO ERP                 2112150009301                 0708855                                                UO                       0021
10666800010011781107080781087100086 0011000000    2103210000000000000000000000000000000000007810000390000010000001D20000011          200000       0022
1066100117811          RNIA      00000002300000000000000000                                                                                       0023
106668100117811300          I77800009030000000000000000000000                         00000                          2                            0024
2066100117811CADJN ACNECOSLA                         0000000018186URS                           000000                                            0025
20661001178110000000108186                                                                                                                        0026
30661001178119557RDSO                               004383000               000000000000000000000002                                              0027
30661001178118000RDSO                               004383000               000000000000000000000000                                              0028
30661001178116200000000000000000000000                                                                                                            0029
4066100117811000CADJN ACNECOSLA          17111000000F000                         00003011          1    21000                    000000000000000000020
406610011781100002800000000000000000000001100S21002103                                                                                            0021
406610011781100002900000000000000000000001100N21002103                                                                                            0022
406610011781100002000000000000000000000001100N21002103                                                                                            0023
406610011781100002100000000000000000000001100N21002103                                                                                            0024
406610011781100002600000000000000000000001100N21002103                                                                                            0025
4066100117811000CJA  VL 31S 0                                 NOIFRAO        UELNI          M3480                                                 0026
4066100117811000155171                    N                                                                                                       0027
4066100117811000N               00000000               000000                                             00000                                   0028
40661001178110000108186000000000000000000000                                                                                                      0029
9066100117811UO ERP                 2112150009301                 0708855                                                UO                       0020
10666800010011782107080781087100086 0111000000    2103210000000600000000000000000060000000007810000470000010000001D20000011          200000       0021
1066100117821          RNIA      00000002500000000000000000                                                                                       0022
106668100117821300          I71700013091000000000000000000000                         00000                          2                            0023
2066100117821CADJN ACNECOSLA          45.LUEAEBAEC.O.0000000016243URS                           000000                                            0024
20661001178210000000106243                                                                                                                        0025
30661001178219557RDSO                               004383000               000000000000000000000002                                              0026
30661001178218000RDSO                               004383000               000000000000000000000000                                              0027
30661001178216200000000000000000000000                                                                                                            0028
4066100117821000CADJN ACNECOSLA          17111000000F000                         00003011          1    2100025CADJN@RDSOCMB     000000000000000000029
406610011782100002800000000000000500000001100S21002103                                                                                            0020
406610011782100002900000000000000000000001100N21002103                                                                                            0021
406610011782100002000000000000000500000001100N21002103                                                                                            0022
406610011782100002100000000000000500000001100N21002103                                                                                            0023
406610011782100002600000000000000000000001100N21002103                                                                                            0024
4066100117821000CRAGSA AN014                                  PNSPR          CTA            S0706                                                 0025
4066100117821000155171                    N                                                                                                       0026
4066100117821000N               00000000               000000                                             00000                                   0027
40661001178210000106243000000000000000000000                                                                                                      0028
9066100117821UO ERP                 2112150009301                 0708855                                                UO                       0029
10666800010011783107080781087100086 0011000000    2103210000000800000000000000000080000000007810000230000010000001D20000011          200000       0020
1066100117831          RNIA      00000002300000000000000000                                                                                       0021
106668100117831300          I79600028000000000000000000000000                         00000                          2                            0022
2066100117831CADJN ACNECOSLA          45.LUEAEBAEC.O.0000000011400URS                           000000                                            0023
20661001178310000000101400                                                                                                                        0024
30661001178319557RDSO                               004383000               000000000000000000000002                                              0025
30661001178318000RDSO                               004383000               000000000000000000000000                                              0026
30661001178316200000000000000000000000                                                                                                            0027
4066100117831000CADJN ACNECOSLA          17111000000F000                         00003011          1    2100025CADJN@RDSOCMB     000000000000000000028
406610011783100002800000000000000900000001100S21002103                                                                                            0029
406610011783100002900000000000000000000001100N21002103                                                                                            0020
406610011783100002000000000000000900000001100N21002103                                                                                            0021
406610011783100002100000000000000900000001100N21002103                                                                                            0022
406610011783100002600000000000000000000001100N21002103                                                                                            0023
4066100117831000CRAGSA AN14                                   GAJ IN         CTA            S0706                                                 0024
4066100117831000155171                    N                                                                                                       0025
4066100117831000N               00000000               000000                                             00000                                   0026
40661001178310000101400000000000000000000000                                                                                                      0027
9066100117831UO ERP                 2112150009301                 0708855                                                UO                       0028
10666800010011784107080781087100086 0011000000    2103210000000700000000000000000070000000007810000380000010000001D20000011          200000       0029
1066100117841          RNIA      00000002300000000000000000                                                                                       0020
106668100117841300          I76700008000000000000000000000000                         00000                          2                            0021
2066100117841AESNR AAAVS                             0000000017684URS                           000000                                            0022
20661001178410000000107684                                                                                                                        0023
30661001178419557RDSO                               004383000               000000000000000000000002                                              0024
30661001178418000RDSO                               004383000               000000000000000000000000                                              0025
30661001178416200000000000000000000000                                                                                                            0026
4066100117841000AESNR AAAVS              17011000000F000                         00003011          3    21000                    000000000000000000027
406610011784100002800000000000000200000001100S21002103                                                                                            0028
406610011784100002900000000000000000000001100N21002103                                                                                            0029
406610011784100002000000000000000200000001100N21002103                                                                                            0030
406610011784100002100000000000000200000001100N21002103                                                                                            0031
406610011784100002600000000000000000000001100N21002103                                                                                            0032
4066100117841000CRBRAD O ATS0                                 JRI PMI        SOPUO          S0520                                                 0033
4066100117841000173040                    N                                                                                                       0034
4066100117841000N               00000000               000000                                             00000                                   0035
40661001178410000107684000000000000000000000                                                                                                      0036
9066100117841UO ERP                 2112150009301                 0708855                                                UO                       0037
10666800010011785107080781087100086 0011000000    2103210000000700000000000000000080000000007810000710000010000001D20000011          200000       0038
1066100117851          RNIA      00000002300000000000000000                                                                                       0039
106668100117851300          I74900003080000000000000000000000                         00000                          2                            0030
2066100117851RNT  OAS                                0000000090685URS                           000000                                            0031
20661001178510000000100685                                                                                                                        0032
30661001178519557RDSO                               004383000               000000000000000000000002                                              0033
30661001178518000RDSO                               004383000               000000000000000000000000                                              0034
30661001178516200000000000000000000000                                                                                                            0035
4066100117851000RNT  OAS                 17001000000M000                         00003011          0    21000                    000000000000000000036
406610011785100002800000000000000600000001100S21002103                                                                                            0037
406610011785100002900000000000000000000001100N21002103                                                                                            0038
406610011785100002000000000000000600000001100N21002103                                                                                            0039
406610011785100002100000000000000500000001100N21002103                                                                                            0030
406610011785100002600000000000000000000001100N21002103                                                                                            0031
4066100117851000CRATNOASADN                                   NOIFRAO        IDITB          S1333                                                 0032
4066100117851000156137                    N                                                                                                       0033
4066100117851000N               00000000               000000                                             00000                                   0034
40661001178510000100685000000000000000000000                                                                                                      0035
9066100117851UO ERP                 2112150009301                 0708855                                                UO                       0036
10666800010011786107080781087100086 0011000000    2103210000000300000000000000000030000000007810000450000010000001D20000011          200000       0037
1066100117861          RNIA      00000002600000000000000000                                                                                       0038
106668100117861300          I77700092010000000000000000000000                         00000                          2                            0039
2066100117861VLII OER OTNOJ                          0000000000000URS                           000000                                            0030
20661001178610000000000000                                                                                                                        0031
30661001178619557RDSO                               004383000               000000000000000000000002                                              0032
30661001178618000RDSO                               004383000               000000000000000000000000                                              0033
30661001178616200000000000000000000000                                                                                                            0034
4066100117861000VLII OER OTNOJ           17021000003M000                         00003011          2    21000                    000000000000000000035
406610011786100002100000000000000000000001100N21002103                                                                                            0036
406610011786100002800008000000000400000001100S21002103                                                                                            0037
406610011786100002900008000000000000000001100N21002103                                                                                            0038
406610011786100002000008000000000400000001100N21002103                                                                                            0039
406610011786100002100008000000000400000001100N21002103                                                                                            0030
406610011786100004100000000000000000000001100N21002103                                                                                            0031
406610011786100002600000000000000000000001100N21002103                                                                                            0032
4066100117861000CATU OE OE ASLA8                              JRI SEAD       SOPUO          S0374                                                 0033
4066100117861000167069                    N                                                                                                       0034
4066100117861000N               00000000               000000                                             00000                                   0035
40661001178610000000000000000000000000000000                                                                                                      0036
9066100117861UO ERP                 2112150001301                 0708855                                                UO                       0037
10666800010011787107080781087100086 0111000000    2103210000000600000000000000000060000000007810000470000010000001D20000011          200000       0038
1066100117871          RNIA      00000002500000000000000000                                                                                       0039
106668100117871300          I71700086000000000000000000000000                         00000                          2                            0030
2066100117871RFE EGE IT                              0000000011498URS                           000000                                            0031
20661001178710000000101498                                                                                                                        0032
30661001178719557RDSO                               004383000               000000000000000000000002                                              0033
30661001178718000RDSO                               004383000               000000000000000000000000                                              0034
30661001178716200000000000000000000000                                                                                                            0035
4066100117871000RFE EGE IT               18011000030M000                         00003011          9    21000                    000000000000000000036
406610011787100002800000000000000500000001100S21002103                                                                                            0037
406610011787100002900000000000000000000001100N21002103                                                                                            0038
406610011787100002000000000000000500000001100N21002103                                                                                            0039
406610011787100002100000000000000500000001100N21002103                                                                                            0030
406610011787100002600000000000000000000001100N21002103                                                                                            0031
4066100117871000CJS IT9                                       JRI A EEA      CRPCIA         S0354                                                 0032
4066100117871000156860                    N                                                                                                       0033
4066100117871000N               00000000               000000                                             00000                                   0034
40661001178710000101498000000000000000000000                                                                                                      0035
9066100117871UO ERP                 2112150009301                 0708855                                                UO                       0036
10666800010011788107080781087100086 0011000000    2103210000000700000000000000000070000000007810000560000010000001D20000011          200000       0037
1066100117881          RNIA      00000002300000000000000000                                                                                       0038
106668100117881300          I74500004090000000000000000000000                         00000                          2                            0039
2066100117881AAD   ENNE                              0000000015474URS                           000000                                            0030
20661001178810000000105474                                                                                                                        0031
30661001178819557RDSO                               004383000               000000000000000000000002                                              0032
30661001178818000RDSO                               004383000               000000000000000000000000                                              0033
30661001178816200000000000000000000000                                                                                                            0034
4066100117881000AAD   ENNE               18021000000M000                         00003011          9    21000                    000000000000000000035
406610011788100002800000000000000900000001100S21002103                                                                                            0036
406610011788100002900000000000000000000001100N21002103                                                                                            0037
406610011788100002000000000000000900000001100N21002103                                                                                            0038
406610011788100002100000000000000900000001100N21002103                                                                                            0039
406610011788100002600000000000000000000001100N21002103                                                                                            0030
4066100117881000CMRAVTLN LVI4                                 NOIFRAO        OAC            S0107                                                 0031
4066100117881000162668                    N                                                                                                       0032
4066100117881000N               00000000               000000                                             00000                                   0033
40661001178810000105474000000000000000000000                                                                                                      0034
9066100117881UO ERP                 2112150009301                 0708855                                                UO                       0035
10666800010011789107080781087100086 0011000000    2103210000000800000000000000000080000000007810000230000010000001D20000011          200000       0036
1066100117891          RNIA      00000002300000000000000000                                                                                       0037
106668100117891300          I74500002030000000000000000000000                         00000                          2                            0038
2066100117891AAD ACFRADS                             0000000015474URS                           000000                                            0039
20661001178910000000105474                                                                                                                        0030
30661001178919557RDSO                               004383000               000000000000000000000002                                              0031
30661001178918000RDSO                               004383000               000000000000000000000000                                              0032
30661001178916200000000000000000000000                                                                                                            0033
4066100117891000AAD ACFRADS              18021000000M000                         00003021          9    21000                    000000000000000000034
406610011789100002800000000000000900000001100S21002103                                                                                            0035
406610011789100002900000000000000000000001100N21002103                                                                                            0036
406610011789100002000000000000000900000001100N21002103                                                                                            0037
406610011789100002100000000000000900000001100N21002103                                                                                            0038
406610011789100002600000000000000000000001100N21002103                                                                                            0039
4066100117891000CRMRAVDOIER 4                                 NOIFRAO        OAC            S0107                                                 0040
4066100117891000162668                    N                                                                                                       0041
4066100117891000N               00000000               000000                                             00000                                   0042
40661001178910000105474000000000000000000000                                                                                                      0043
9066100117891UO ERP                 2112150009302                 0708855                                                UO                       0044
10666800010011780107080781087100086 0011000000    2103210000000700000000000000000080000000007810000400000010000001D20000011          200000       0045
1066100117801          RNIA      00000002300000000000000000                                                                                       0046
106668100117801300          I74400009000000000000000000000000                         00000                          2                            0047
2066100117801LIIN  RNA                               0000000015213URS                           000000                                            0048
20661001178010000000105213                                                                                                                        0049
30661001178019557RDSO                               004383000               000000000000000000000002                                              0040
30661001178018000RDSO                               004383000               000000000000000000000000                                              0041
30661001178016200000000000000000000000                                                                                                            0042
4066100117801000LIIN  RNA                19021000000M000                         00003021          5    21000                    000000000000000000043
406610011780100002800000000000000500000001100S21002103                                                                                            0044
406610011780100002900000000000000000000001100N21002103                                                                                            0045
406610011780100002000000000000000500000001100N21002103                                                                                            0046
406610011780100002100000000000000500000001100N21002103                                                                                            0047
406610011780100002600000000000000000000001100N21002103                                                                                            0048
4066100117801000CRBR END 4                                    NOIFRAO        OAC            S0141                                                 0049
4066100117801000185302                    N                                                                                                       0040
4066100117801000N               00000000               000000                                             00000                                   0041
40661001178010000105213000000000000000000000                                                                                                      0042
9066100117801UO ERP                 2112150009302                 0708855                                                UO                       0043
10666800010011781107080781087100086 0011000000    2103210000001100000000000000000120000000007810000400000010000001D20000011          200000       0044
1066100117811          RNIA      00000008150000000000000000                                                                                       0045
106668100117811300          I77800082000000000000000000000000                         00000                          2                            0046
2066100117811MREOGMSQERZJNO           MREOUIR7GALCM  0000000011560URS                           000000                                            0047
20661001178110000000101560                                                                                                                        0048
30661001178119557RDSO                               004383000               000000000000000000000002                                              0049
30661001178118000RDSO                               004383000               000000000000000000000000                                              0040
30661001178116200000000000000000000000                                                                                                            0041
4066100117811000MREOGMSQERZJNO           19011000000M000                         00003021          3    21000ACLJNO4@MI.O        000000000000000000042
406610011781100002100002000000000100000001100N21002103                                                                                            0043
406610011781100002800010000000000600000001100S21002103                                                                                            0044
406610011781100002900010000000000000000001100N21002103                                                                                            0045
406610011781100002000010000000000600000001100N21002103                                                                                            0046
406610011781100002100010000000000600000001100N21002103                                                                                            0047
406610011781100004100002000000000000000001100N21002103                                                                                            0048
406610011781100002600000000000000000000001100N21002103                                                                                            0049
4066100117811000CRASCEAEEPRIAPLERS3                           JRI USCB       OAC            S0124                                                 0040
4066100117811000112249                    N                                                                                                       0041
4066100117811000N               00000000               000000                                             00000                                   0042
40661001178110000101560000000000000000000000                                                                                                      0043
9066100117811UO ERP                 2112150001302                 0708855                                                UO                       0044
10666800010011782107080781087100086 0111000000    2103210000000600000000000000000060000000007810000470000010000001D20000011          200000       0045
1066100117821          RNIA      00000002500000000000000000                                                                                       0046
106668100117821300          I71700014000000000000000000000000                         00000                          2                            0047
2066100117821AEADEGBILD LVIACN                       0000000011336URS                           000000                                            0048
20661001178210000000101336                                                                                                                        0049
30661001178219557RDSO                               004383000               000000000000000000000002                                              0040
30661001178218000RDSO                               004383000               000000000000000000000000                                              0041
30661001178216200000000000000000000000                                                                                                            0042
4066100117821000AEADEGBILD LVIACN        19001000033M000                         00003021          5    21000                    000000000000000000043
406610011782100002800000000000000500000001100S21002103                                                                                            0044
406610011782100002900000000000000000000001100N21002103                                                                                            0045
406610011782100002000000000000000500000001100N21002103                                                                                            0046
406610011782100002100000000000000500000001100N21002103                                                                                            0047
406610011782100002600000000000000000000001100N21002103                                                                                            0048
4066100117821000CIEIA8                                        TMOE           SNAAD ANIA     S0530                                                 0049
4066100117821000113100                    N                                                                                                       0040
4066100117821000N               00000000               000000                                             00000                                   0041
40661001178210000101336000000000000000000000                                                                                                      0042
9066100117821UO ERP                 2112150009302                 0708855                                                UO                       0043
92112002002002000000150150                                                                                                                        0044
